{"abi":[{"type":"constructor","inputs":[],"stateMutability":"nonpayable"},{"type":"function","name":"INITIAL_PERFORMANCE","inputs":[],"outputs":[{"name":"","type":"uint256","internalType":"uint256"}],"stateMutability":"view"},{"type":"function","name":"MIN_STAKE","inputs":[],"outputs":[{"name":"","type":"uint256","internalType":"uint256"}],"stateMutability":"view"},{"type":"function","name":"addStake","inputs":[],"outputs":[],"stateMutability":"payable"},{"type":"function","name":"deregisterOperator","inputs":[],"outputs":[],"stateMutability":"nonpayable"},{"type":"function","name":"getActiveOperators","inputs":[],"outputs":[{"name":"","type":"address[]","internalType":"address[]"}],"stateMutability":"view"},{"type":"function","name":"getOperatorPerformance","inputs":[{"name":"operator","type":"address","internalType":"address"}],"outputs":[{"name":"","type":"uint256","internalType":"uint256"}],"stateMutability":"view"},{"type":"function","name":"getOperatorStake","inputs":[{"name":"operator","type":"address","internalType":"address"}],"outputs":[{"name":"","type":"uint256","internalType":"uint256"}],"stateMutability":"view"},{"type":"function","name":"operatorList","inputs":[{"name":"","type":"uint256","internalType":"uint256"}],"outputs":[{"name":"","type":"address","internalType":"address"}],"stateMutability":"view"},{"type":"function","name":"operators","inputs":[{"name":"","type":"address","internalType":"address"}],"outputs":[{"name":"publicKey","type":"bytes","internalType":"bytes"},{"name":"stake","type":"uint256","internalType":"uint256"},{"name":"isActive","type":"bool","internalType":"bool"},{"name":"performanceScore","type":"uint256","internalType":"uint256"},{"name":"registeredAt","type":"uint256","internalType":"uint256"}],"stateMutability":"view"},{"type":"function","name":"owner","inputs":[],"outputs":[{"name":"","type":"address","internalType":"address"}],"stateMutability":"view"},{"type":"function","name":"registerOperator","inputs":[{"name":"operatorKey","type":"bytes","internalType":"bytes"}],"outputs":[],"stateMutability":"payable"},{"type":"function","name":"slashOperator","inputs":[{"name":"operator","type":"address","internalType":"address"},{"name":"penalty","type":"uint256","internalType":"uint256"}],"outputs":[],"stateMutability":"nonpayable"},{"type":"function","name":"updatePerformanceScore","inputs":[{"name":"operator","type":"address","internalType":"address"},{"name":"score","type":"uint256","internalType":"uint256"}],"outputs":[],"stateMutability":"nonpayable"},{"type":"function","name":"withdrawStake","inputs":[{"name":"amount","type":"uint256","internalType":"uint256"}],"outputs":[],"stateMutability":"nonpayable"},{"type":"event","name":"OperatorDeregistered","inputs":[{"name":"operator","type":"address","indexed":true,"internalType":"address"}],"anonymous":false},{"type":"event","name":"OperatorRegistered","inputs":[{"name":"operator","type":"address","indexed":true,"internalType":"address"},{"name":"publicKey","type":"bytes","indexed":false,"internalType":"bytes"},{"name":"stake","type":"uint256","indexed":false,"internalType":"uint256"}],"anonymous":false},{"type":"event","name":"OperatorSlashed","inputs":[{"name":"operator","type":"address","indexed":true,"internalType":"address"},{"name":"penalty","type":"uint256","indexed":false,"internalType":"uint256"}],"anonymous":false},{"type":"event","name":"StakeUpdated","inputs":[{"name":"operator","type":"address","indexed":true,"internalType":"address"},{"name":"newStake","type":"uint256","indexed":false,"internalType":"uint256"}],"anonymous":false}],"bytecode":{"object":"0x6080604052348015600f57600080fd5b50600280546001600160a01b0319163317905561111b806100316000396000f3fe6080604052600436106100dd5760003560e01c80638da5cb5b1161007f578063c6a5554a11610059578063c6a5554a14610244578063cb1c2b5c14610264578063cb38f40714610281578063e4e88de8146102a157600080fd5b80638da5cb5b146101b3578063968f174c146101eb578063aec1ddc21461022457600080fd5b80635a627dbc116100bb5780635a627dbc1461016157806364bdc67e146101695780638231b54c1461018b578063857dc1901461019e57600080fd5b806313e7c9d8146100e25780632143d07f1461011c57806325d5971f1461013f575b600080fd5b3480156100ee57600080fd5b506101026100fd366004610ce8565b6102da565b604051610113959493929190610d0a565b60405180910390f35b34801561012857600080fd5b50610131606481565b604051908152602001610113565b34801561014b57600080fd5b5061015f61015a366004610d79565b610395565b005b61015f6104da565b34801561017557600080fd5b5061017e61057a565b6040516101139190610d92565b61015f610199366004610dde565b6106f9565b3480156101aa57600080fd5b5061015f61091b565b3480156101bf57600080fd5b506002546101d3906001600160a01b031681565b6040516001600160a01b039091168152602001610113565b3480156101f757600080fd5b50610131610206366004610ce8565b6001600160a01b031660009081526020819052604090206003015490565b34801561023057600080fd5b5061015f61023f366004610e52565b6109d3565b34801561025057600080fd5b5061015f61025f366004610e52565b610a7a565b34801561027057600080fd5b506101316801bc16d674ec80000081565b34801561028d57600080fd5b506101d361029c366004610d79565b610ca2565b3480156102ad57600080fd5b506101316102bc366004610ce8565b6001600160a01b031660009081526020819052604090206001015490565b6000602081905290815260409020805481906102f590610e7c565b80601f016020809104026020016040519081016040528092919081815260200182805461032190610e7c565b801561036e5780601f106103435761010080835404028352916020019161036e565b820191906000526020600020905b81548152906001019060200180831161035157829003601f168201915b505050506001830154600284015460038501546004909501549394919360ff909116925085565b3360009081526020819052604090206002015460ff166103d05760405162461bcd60e51b81526004016103c790610eb6565b60405180910390fd5b336000908152602081905260409020600101546801bc16d674ec800000906103f9908390610ef4565b101561043d5760405162461bcd60e51b815260206004820152601360248201527242656c6f77206d696e696d756d207374616b6560681b60448201526064016103c7565b336000908152602081905260408120600101805483929061045f908490610ef4565b9091555050604051339082156108fc029083906000818181858888f19350505050158015610491573d6000803e3d6000fd5b5033600081815260208181526040918290206001015491519182527fab0e25dc39626189cfb41155020ba89e726b10244275733e9d7c63cf33ffccdb910160405180910390a250565b3360009081526020819052604090206002015460ff1661050c5760405162461bcd60e51b81526004016103c790610eb6565b336000908152602081905260408120600101805434929061052e908490610f0d565b909155505033600081815260208181526040918290206001015491519182527fab0e25dc39626189cfb41155020ba89e726b10244275733e9d7c63cf33ffccdb910160405180910390a2565b60606000805b6001548110156105e657600080600183815481106105a0576105a0610f20565b60009182526020808320909101546001600160a01b0316835282019290925260400190206002015460ff16156105de57816105da81610f36565b9250505b600101610580565b5060008167ffffffffffffffff81111561060257610602610f4f565b60405190808252806020026020018201604052801561062b578160200160208202803683370190505b5090506000805b6001548110156106f0576000806001838154811061065257610652610f20565b60009182526020808320909101546001600160a01b0316835282019290925260400190206002015460ff16156106e8576001818154811061069557610695610f20565b6000918252602090912001546001600160a01b031683836106b581610f36565b9450815181106106c7576106c7610f20565b60200260200101906001600160a01b031690816001600160a01b0316815250505b600101610632565b50909392505050565b6801bc16d674ec8000003410156107475760405162461bcd60e51b8152602060048201526012602482015271496e73756666696369656e74207374616b6560701b60448201526064016103c7565b3360009081526020819052604090206002015460ff161561079f5760405162461bcd60e51b8152602060048201526012602482015271105b1c9958591e481c9959da5cdd195c995960721b60448201526064016103c7565b806107da5760405162461bcd60e51b815260206004820152600b60248201526a496e76616c6964206b657960a81b60448201526064016103c7565b6040518060a0016040528083838080601f0160208091040260200160405190810160405280939291908181526020018383808284376000920182905250938552505034602080850191909152600160408086019190915260646060860152426080909501949094523383528290525020815181906108589082610fb4565b50602082015160018281019190915560408084015160028401805460ff191691151591909117905560608401516003840155608090930151600490920191909155805480820182556000919091527fb10e2d527612073b26eecdfd717e6a320cf44b4afac2b0732d9fcbe2b7fa0cf6018054336001600160a01b0319909116811790915590517fd2829b186888e933136bc478b9e462ee58413b05b59b4887dd07d48674d285c69061090f90859085903490611073565b60405180910390a25050565b3360009081526020819052604090206002015460ff1661094d5760405162461bcd60e51b81526004016103c790610eb6565b33600090815260208190526040812060028101805460ff19169055600101805491905580156109a557604051339082156108fc029083906000818181858888f193505050501580156109a3573d6000803e3d6000fd5b505b60405133907f6dd4ca66565fb3dee8076c654634c6c4ad949022d809d0394308617d6791218d90600090a250565b6002546001600160a01b03163314610a1a5760405162461bcd60e51b815260206004820152600a60248201526927b7363c9037bbb732b960b11b60448201526064016103c7565b6064811115610a5b5760405162461bcd60e51b815260206004820152600d60248201526c496e76616c69642073636f726560981b60448201526064016103c7565b6001600160a01b03909116600090815260208190526040902060030155565b6002546001600160a01b03163314610ac15760405162461bcd60e51b815260206004820152600a60248201526927b7363c9037bbb732b960b11b60448201526064016103c7565b6001600160a01b03821660009081526020819052604090206002015460ff16610b225760405162461bcd60e51b81526020600482015260136024820152724f70657261746f72206e6f742061637469766560681b60448201526064016103c7565b6001600160a01b038216600090815260208190526040902060010154811115610b855760405162461bcd60e51b815260206004820152601560248201527450656e616c74792065786365656473207374616b6560581b60448201526064016103c7565b6001600160a01b03821660009081526020819052604081206001018054839290610bb0908490610ef4565b90915550506001600160a01b038216600090815260208190526040902060030154606490610bdf90605f6110ac565b610be991906110c3565b6001600160a01b03831660009081526020819052604090206003810191909155600101546801bc16d674ec8000001115610c67576001600160a01b038216600081815260208190526040808220600201805460ff19169055517f6dd4ca66565fb3dee8076c654634c6c4ad949022d809d0394308617d6791218d9190a25b816001600160a01b03167fa005d3b8f5c8149659f2afc06ed99732d5891377a370a723669418ca1ca29ced8260405161090f91815260200190565b60018181548110610cb257600080fd5b6000918252602090912001546001600160a01b0316905081565b80356001600160a01b0381168114610ce357600080fd5b919050565b600060208284031215610cfa57600080fd5b610d0382610ccc565b9392505050565b60a08152600086518060a084015260005b81811015610d38576020818a0181015160c0868401015201610d1b565b50600060c0828501015260c0601f19601f830116840101915050856020830152610d66604083018615159052565b6060820193909352608001529392505050565b600060208284031215610d8b57600080fd5b5035919050565b602080825282518282018190526000918401906040840190835b81811015610dd35783516001600160a01b0316835260209384019390920191600101610dac565b509095945050505050565b60008060208385031215610df157600080fd5b823567ffffffffffffffff811115610e0857600080fd5b8301601f81018513610e1957600080fd5b803567ffffffffffffffff811115610e3057600080fd5b856020828401011115610e4257600080fd5b6020919091019590945092505050565b60008060408385031215610e6557600080fd5b610e6e83610ccc565b946020939093013593505050565b600181811c90821680610e9057607f821691505b602082108103610eb057634e487b7160e01b600052602260045260246000fd5b50919050565b6020808252600e908201526d139bdd081c9959da5cdd195c995960921b604082015260600190565b634e487b7160e01b600052601160045260246000fd5b81810381811115610f0757610f07610ede565b92915050565b80820180821115610f0757610f07610ede565b634e487b7160e01b600052603260045260246000fd5b600060018201610f4857610f48610ede565b5060010190565b634e487b7160e01b600052604160045260246000fd5b601f821115610faf57806000526020600020601f840160051c81016020851015610f8c5750805b601f840160051c820191505b81811015610fac5760008155600101610f98565b50505b505050565b815167ffffffffffffffff811115610fce57610fce610f4f565b610fe281610fdc8454610e7c565b84610f65565b6020601f8211600181146110165760008315610ffe5750848201515b600019600385901b1c1916600184901b178455610fac565b600084815260208120601f198516915b828110156110465787850151825560209485019460019092019101611026565b50848210156110645786840151600019600387901b60f8161c191681555b50505050600190811b01905550565b604081528260408201528284606083013760006060848301015260006060601f19601f8601168301019050826020830152949350505050565b8082028115828204841417610f0757610f07610ede565b6000826110e057634e487b7160e01b600052601260045260246000fd5b50049056fea2646970667358221220b5faa69f5d1ffab8fcf00a48d4f59f49c61aa72fd4ae8132bf30bc9b7857757f64736f6c634300081b0033","linkReferences":{}},"methodIdentifiers":{"INITIAL_PERFORMANCE()":"2143d07f","MIN_STAKE()":"cb1c2b5c","addStake()":"5a627dbc","deregisterOperator()":"857dc190","getActiveOperators()":"64bdc67e","getOperatorPerformance(address)":"968f174c","getOperatorStake(address)":"e4e88de8","operatorList(uint256)":"cb38f407","operators(address)":"13e7c9d8","owner()":"8da5cb5b","registerOperator(bytes)":"8231b54c","slashOperator(address,uint256)":"c6a5554a","updatePerformanceScore(address,uint256)":"aec1ddc2","withdrawStake(uint256)":"25d5971f"},"id":1}