{"abi":[{"type":"constructor","inputs":[{"name":"_taskMailbox","type":"address","internalType":"address"}],"stateMutability":"nonpayable"},{"type":"receive","stateMutability":"payable"},{"type":"function","name":"CONSENSUS_THRESHOLD","inputs":[],"outputs":[{"name":"","type":"uint256","internalType":"uint256"}],"stateMutability":"view"},{"type":"function","name":"MAX_SCORE_VARIANCE","inputs":[],"outputs":[{"name":"","type":"uint256","internalType":"uint256"}],"stateMutability":"view"},{"type":"function","name":"SLASHING_PENALTY","inputs":[],"outputs":[{"name":"","type":"uint256","internalType":"uint256"}],"stateMutability":"view"},{"type":"function","name":"aggregator","inputs":[],"outputs":[{"name":"","type":"address","internalType":"address"}],"stateMutability":"view"},{"type":"function","name":"distributeRewards","inputs":[{"name":"taskId","type":"uint256","internalType":"uint256"},{"name":"totalRewards","type":"uint256","internalType":"uint256"}],"outputs":[],"stateMutability":"nonpayable"},{"type":"function","name":"operatorPerformance","inputs":[{"name":"","type":"address","internalType":"address"}],"outputs":[{"name":"","type":"uint256","internalType":"uint256"}],"stateMutability":"view"},{"type":"function","name":"operatorStakes","inputs":[{"name":"","type":"address","internalType":"address"}],"outputs":[{"name":"","type":"uint256","internalType":"uint256"}],"stateMutability":"view"},{"type":"function","name":"owner","inputs":[],"outputs":[{"name":"","type":"address","internalType":"address"}],"stateMutability":"view"},{"type":"function","name":"processAuditResult","inputs":[{"name":"taskId","type":"uint256","internalType":"uint256"},{"name":"auditReport","type":"bytes","internalType":"bytes"},{"name":"signatures","type":"bytes[]","internalType":"bytes[]"},{"name":"results","type":"tuple[]","internalType":"struct AVSTaskHook.OperatorResult[]","components":[{"name":"operator","type":"address","internalType":"address"},{"name":"score","type":"uint256","internalType":"uint256"},{"name":"findingsCount","type":"uint256","internalType":"uint256"},{"name":"signature","type":"bytes","internalType":"bytes"}]}],"outputs":[],"stateMutability":"nonpayable"},{"type":"function","name":"setAggregator","inputs":[{"name":"_aggregator","type":"address","internalType":"address"}],"outputs":[],"stateMutability":"nonpayable"},{"type":"function","name":"taskMailbox","inputs":[],"outputs":[{"name":"","type":"address","internalType":"contract ITaskMailbox"}],"stateMutability":"view"},{"type":"function","name":"taskResults","inputs":[{"name":"","type":"uint256","internalType":"uint256"},{"name":"","type":"uint256","internalType":"uint256"}],"outputs":[{"name":"operator","type":"address","internalType":"address"},{"name":"score","type":"uint256","internalType":"uint256"},{"name":"findingsCount","type":"uint256","internalType":"uint256"},{"name":"signature","type":"bytes","internalType":"bytes"}],"stateMutability":"view"},{"type":"event","name":"OperatorSlashed","inputs":[{"name":"operator","type":"address","indexed":false,"internalType":"address"},{"name":"amount","type":"uint256","indexed":false,"internalType":"uint256"}],"anonymous":false},{"type":"event","name":"ResultProcessed","inputs":[{"name":"taskId","type":"uint256","indexed":false,"internalType":"uint256"},{"name":"consensusScore","type":"uint256","indexed":false,"internalType":"uint256"}],"anonymous":false},{"type":"event","name":"RewardsDistributed","inputs":[{"name":"taskId","type":"uint256","indexed":false,"internalType":"uint256"},{"name":"totalRewards","type":"uint256","indexed":false,"internalType":"uint256"}],"anonymous":false}],"bytecode":{"object":"0x6080604052348015600f57600080fd5b506040516112db3803806112db833981016040819052602c91605e565b60008054336001600160a01b031991821617909155600280549091166001600160a01b0392909216919091179055608c565b600060208284031215606f57600080fd5b81516001600160a01b0381168114608557600080fd5b9392505050565b6112408061009b6000396000f3fe6080604052600436106100ab5760003560e01c8063b204e4d911610064578063b204e4d91461019b578063bca125f0146101c8578063df6c39fb146101dd578063e03c4c41146101fd578063f42a9e131461022d578063f9120af61461024d57600080fd5b80631c9856ae146100b75780631f0e2274146100f7578063245a7bfc1461011957806325d64f4b1461015157806358d9312c146101665780638da5cb5b1461017b57600080fd5b366100b257005b600080fd5b3480156100c357600080fd5b506100e46100d2366004610c8b565b60036020526000908152604090205481565b6040519081526020015b60405180910390f35b34801561010357600080fd5b50610117610112366004610cf4565b61026d565b005b34801561012557600080fd5b50600154610139906001600160a01b031681565b6040516001600160a01b0390911681526020016100ee565b34801561015d57600080fd5b506100e4600581565b34801561017257600080fd5b506100e4600f81565b34801561018757600080fd5b50600054610139906001600160a01b031681565b3480156101a757600080fd5b506100e46101b6366004610c8b565b60046020526000908152604090205481565b3480156101d457600080fd5b506100e4604381565b3480156101e957600080fd5b506101176101f8366004610dd6565b610499565b34801561020957600080fd5b5061021d610218366004610dd6565b61084e565b6040516100ee9493929190610df8565b34801561023957600080fd5b50600254610139906001600160a01b031681565b34801561025957600080fd5b50610117610268366004610c8b565b61092a565b6001546001600160a01b031633146102be5760405162461bcd60e51b815260206004820152600f60248201526e27b7363c9030b3b3b932b3b0ba37b960891b60448201526064015b60405180910390fd5b8281146103055760405162461bcd60e51b81526020600482015260156024820152744d69736d617463686564207369676e61747572657360581b60448201526064016102b5565b60005b8181101561036e57600088815260056020526040902083838381811061033057610330610e63565b90506020028101906103429190610e79565b8154600181018355600092835260209092209091600402016103648282610ff8565b5050600101610308565b5060008061037c8484610993565b9150915060005b81518110156103e95760006001600160a01b03168282815181106103a9576103a9610e63565b60200260200101516001600160a01b0316146103e1576103e18282815181106103d4576103d4610e63565b6020026020010151610b84565b600101610383565b50600254604051632db859e160e01b81526001600160a01b0390911690632db859e190610422908c908c908c908c908c906004016110b5565b600060405180830381600087803b15801561043c57600080fd5b505af1158015610450573d6000803e3d6000fd5b5050604080518c8152602081018690527f86ad70d8d1e5fc89645014f6243d2612bcd5084b31024326dfc82482e466922b935001905060405180910390a1505050505050505050565b6001546001600160a01b031633146104e55760405162461bcd60e51b815260206004820152600f60248201526e27b7363c9030b3b3b932b3b0ba37b960891b60448201526064016102b5565b600082815260056020908152604080832080548251818502810185019093528083529192909190849084015b82821015610600576000848152602090819020604080516080810182526004860290920180546001600160a01b0316835260018101549383019390935260028301549082015260038201805491929160608401919061056f90610eaf565b80601f016020809104026020016040519081016040528092919081815260200182805461059b90610eaf565b80156105e85780601f106105bd576101008083540402835291602001916105e8565b820191906000526020600020905b8154815290600101906020018083116105cb57829003601f168201915b50505050508152505081526020019060010190610511565b50505050905060008151116106445760405162461bcd60e51b815260206004820152600a6024820152694e6f20726573756c747360b01b60448201526064016102b5565b6000815167ffffffffffffffff81111561066057610660610e99565b604051908082528060200260200182016040528015610689578160200160208202803683370190505b5090506000805b835181101561076c5760006064600460008785815181106106b3576106b3610e63565b6020026020010151600001516001600160a01b03166001600160a01b0316815260200190815260200160002054600360008886815181106106f6576106f6610e63565b6020026020010151600001516001600160a01b03166001600160a01b031681526020019081526020016000205461072d919061118c565b61073791906111a9565b90508084838151811061074c5761074c610e63565b602090810291909101015261076181846111cb565b925050600101610690565b5060005b835181101561080d5760008284838151811061078e5761078e610e63565b6020026020010151876107a1919061118c565b6107ab91906111a9565b90508482815181106107bf576107bf610e63565b6020026020010151600001516001600160a01b03166108fc829081150290604051600060405180830381858888f19350505050158015610803573d6000803e3d6000fd5b5050600101610770565b5060408051868152602081018690527f29e98ba00d07f171959c4ddcd2f3020debc7c52cf537a034d7e664340d098c6c910160405180910390a15050505050565b6005602052816000526040600020818154811061086a57600080fd5b600091825260209091206004909102018054600182015460028301546003840180546001600160a01b03909416965091945092916108a790610eaf565b80601f01602080910402602001604051908101604052809291908181526020018280546108d390610eaf565b80156109205780601f106108f557610100808354040283529160200191610920565b820191906000526020600020905b81548152906001019060200180831161090357829003601f168201915b5050505050905084565b6000546001600160a01b031633146109715760405162461bcd60e51b815260206004820152600a60248201526927b7363c9037bbb732b960b11b60448201526064016102b5565b600180546001600160a01b0319166001600160a01b0392909216919091179055565b600060608282036109b557505060408051600080825260208201909252610b7d565b6000805b848110156109fd578585828181106109d3576109d3610e63565b90506020028101906109e59190610e79565b6109f39060200135836111cb565b91506001016109b9565b50610a0884826111a9565b92508367ffffffffffffffff811115610a2357610a23610e99565b604051908082528060200260200182016040528015610a4c578160200160208202803683370190505b5091506000805b85811015610b7957600085888884818110610a7057610a70610e63565b9050602002810190610a829190610e79565b6020013511610ac257878783818110610a9d57610a9d610e63565b9050602002810190610aaf9190610e79565b610abd9060200135876111de565b610af5565b85888884818110610ad557610ad5610e63565b9050602002810190610ae79190610e79565b60200135610af591906111de565b9050600f811115610b7057878783818110610b1257610b12610e63565b9050602002810190610b249190610e79565b610b32906020810190610c8b565b8584610b3d816111f1565b955081518110610b4f57610b4f610e63565b60200260200101906001600160a01b031690816001600160a01b0316815250505b50600101610a53565b5050505b9250929050565b6001600160a01b038116600090815260036020526040812054906064610bab60058461118c565b610bb591906111a9565b6001600160a01b038416600090815260036020526040812080549293508392909190610be29084906111de565b90915550506001600160a01b038316600090815260046020526040902054606490610c0e90605f61118c565b610c1891906111a9565b6001600160a01b0384166000818152600460209081526040918290209390935580519182529181018390527fa005d3b8f5c8149659f2afc06ed99732d5891377a370a723669418ca1ca29ced910160405180910390a1505050565b6001600160a01b0381168114610c8857600080fd5b50565b600060208284031215610c9d57600080fd5b8135610ca881610c73565b9392505050565b60008083601f840112610cc157600080fd5b50813567ffffffffffffffff811115610cd957600080fd5b6020830191508360208260051b8501011115610b7d57600080fd5b60008060008060008060006080888a031215610d0f57600080fd5b87359650602088013567ffffffffffffffff811115610d2d57600080fd5b8801601f81018a13610d3e57600080fd5b803567ffffffffffffffff811115610d5557600080fd5b8a6020828401011115610d6757600080fd5b60209190910196509450604088013567ffffffffffffffff811115610d8b57600080fd5b610d978a828b01610caf565b909550935050606088013567ffffffffffffffff811115610db757600080fd5b610dc38a828b01610caf565b989b979a50959850939692959293505050565b60008060408385031215610de957600080fd5b50508035926020909101359150565b60018060a01b0385168152836020820152826040820152608060608201526000825180608084015260005b81811015610e4057602081860181015160a0868401015201610e23565b50600060a0828501015260a0601f19601f83011684010191505095945050505050565b634e487b7160e01b600052603260045260246000fd5b60008235607e19833603018112610e8f57600080fd5b9190910192915050565b634e487b7160e01b600052604160045260246000fd5b600181811c90821680610ec357607f821691505b602082108103610ee357634e487b7160e01b600052602260045260246000fd5b50919050565b601f821115610f3357806000526020600020601f840160051c81016020851015610f105750805b601f840160051c820191505b81811015610f305760008155600101610f1c565b50505b505050565b67ffffffffffffffff831115610f5057610f50610e99565b610f6483610f5e8354610eaf565b83610ee9565b6000601f841160018114610f985760008515610f805750838201355b600019600387901b1c1916600186901b178355610f30565b600083815260209020601f19861690835b82811015610fc95786850135825560209485019460019092019101610fa9565b5086821015610fe65760001960f88860031b161c19848701351681555b505060018560011b0183555050505050565b813561100381610c73565b81546001600160a01b0319166001600160a01b03919091161781556020820135600182015560408201356002820155606082013536839003601e1901811261104a57600080fd5b8201803567ffffffffffffffff81111561106357600080fd5b60208201915080360382131561107857600080fd5b611086818360038601610f38565b50505050565b81835281816020850137506000828201602090810191909152601f909101601f19169091010190565b8581526060602082015260006110cf60608301868861108c565b8281036040840152838152602080820190600586901b83010186600036829003601e19015b8882101561116557858403601f19018552823581811261111357600080fd5b8a0160208101903567ffffffffffffffff81111561113057600080fd5b80360382131561113f57600080fd5b61114a86828461108c565b955050506020830192506020850194506001820191506110f4565b50919b9a5050505050505050505050565b634e487b7160e01b600052601160045260246000fd5b80820281158282048414176111a3576111a3611176565b92915050565b6000826111c657634e487b7160e01b600052601260045260246000fd5b500490565b808201808211156111a3576111a3611176565b818103818111156111a3576111a3611176565b60006001820161120357611203611176565b506001019056fea2646970667358221220af36e20c4858dd10869532a6a0c8fba6e867e116cb24da3fbf0c764c632f02b464736f6c634300081b0033","linkReferences":{}},"methodIdentifiers":{"CONSENSUS_THRESHOLD()":"bca125f0","MAX_SCORE_VARIANCE()":"58d9312c","SLASHING_PENALTY()":"25d64f4b","aggregator()":"245a7bfc","distributeRewards(uint256,uint256)":"df6c39fb","operatorPerformance(address)":"b204e4d9","operatorStakes(address)":"1c9856ae","owner()":"8da5cb5b","processAuditResult(uint256,bytes,bytes[],(address,uint256,uint256,bytes)[])":"1f0e2274","setAggregator(address)":"f9120af6","taskMailbox()":"f42a9e13","taskResults(uint256,uint256)":"e03c4c41"},"id":0}