{"abi":[{"type":"constructor","inputs":[],"stateMutability":"nonpayable"},{"type":"function","name":"MIN_PAYMENT","inputs":[],"outputs":[{"name":"","type":"uint256","internalType":"uint256"}],"stateMutability":"view"},{"type":"function","name":"auditResults","inputs":[{"name":"","type":"uint256","internalType":"uint256"}],"outputs":[{"name":"report","type":"bytes","internalType":"bytes"},{"name":"timestamp","type":"uint256","internalType":"uint256"},{"name":"isValid","type":"bool","internalType":"bool"}],"stateMutability":"view"},{"type":"function","name":"authorizeAggregator","inputs":[{"name":"aggregator","type":"address","internalType":"address"}],"outputs":[],"stateMutability":"nonpayable"},{"type":"function","name":"authorizedAggregators","inputs":[{"name":"","type":"address","internalType":"address"}],"outputs":[{"name":"","type":"bool","internalType":"bool"}],"stateMutability":"view"},{"type":"function","name":"getAuditResult","inputs":[{"name":"taskId","type":"uint256","internalType":"uint256"}],"outputs":[{"name":"","type":"tuple","internalType":"struct TaskMailbox.AuditResult","components":[{"name":"report","type":"bytes","internalType":"bytes"},{"name":"operatorSignatures","type":"bytes[]","internalType":"bytes[]"},{"name":"timestamp","type":"uint256","internalType":"uint256"},{"name":"isValid","type":"bool","internalType":"bool"}]}],"stateMutability":"view"},{"type":"function","name":"getTask","inputs":[{"name":"taskId","type":"uint256","internalType":"uint256"}],"outputs":[{"name":"","type":"tuple","internalType":"struct TaskMailbox.Task","components":[{"name":"submitter","type":"address","internalType":"address"},{"name":"contractAddress","type":"address","internalType":"address"},{"name":"payment","type":"uint256","internalType":"uint256"},{"name":"status","type":"uint8","internalType":"enum TaskMailbox.TaskStatus"},{"name":"timestamp","type":"uint256","internalType":"uint256"},{"name":"requirements","type":"bytes","internalType":"bytes"}]}],"stateMutability":"view"},{"type":"function","name":"nextTaskId","inputs":[],"outputs":[{"name":"","type":"uint256","internalType":"uint256"}],"stateMutability":"view"},{"type":"function","name":"owner","inputs":[],"outputs":[{"name":"","type":"address","internalType":"address"}],"stateMutability":"view"},{"type":"function","name":"setTaskHook","inputs":[{"name":"_taskHook","type":"address","internalType":"address"}],"outputs":[],"stateMutability":"nonpayable"},{"type":"function","name":"submitAuditResult","inputs":[{"name":"taskId","type":"uint256","internalType":"uint256"},{"name":"auditReport","type":"bytes","internalType":"bytes"},{"name":"signatures","type":"bytes[]","internalType":"bytes[]"}],"outputs":[],"stateMutability":"nonpayable"},{"type":"function","name":"submitAuditTask","inputs":[{"name":"contractToAudit","type":"address","internalType":"address"},{"name":"requirements","type":"bytes","internalType":"bytes"}],"outputs":[{"name":"","type":"uint256","internalType":"uint256"}],"stateMutability":"payable"},{"type":"function","name":"taskHook","inputs":[],"outputs":[{"name":"","type":"address","internalType":"address"}],"stateMutability":"view"},{"type":"function","name":"tasks","inputs":[{"name":"","type":"uint256","internalType":"uint256"}],"outputs":[{"name":"submitter","type":"address","internalType":"address"},{"name":"contractAddress","type":"address","internalType":"address"},{"name":"payment","type":"uint256","internalType":"uint256"},{"name":"status","type":"uint8","internalType":"enum TaskMailbox.TaskStatus"},{"name":"timestamp","type":"uint256","internalType":"uint256"},{"name":"requirements","type":"bytes","internalType":"bytes"}],"stateMutability":"view"},{"type":"event","name":"AggregatorAuthorized","inputs":[{"name":"aggregator","type":"address","indexed":false,"internalType":"address"}],"anonymous":false},{"type":"event","name":"TaskCompleted","inputs":[{"name":"taskId","type":"uint256","indexed":true,"internalType":"uint256"},{"name":"resultHash","type":"bytes32","indexed":false,"internalType":"bytes32"}],"anonymous":false},{"type":"event","name":"TaskSubmitted","inputs":[{"name":"taskId","type":"uint256","indexed":true,"internalType":"uint256"},{"name":"contractAddress","type":"address","indexed":false,"internalType":"address"},{"name":"payment","type":"uint256","indexed":false,"internalType":"uint256"}],"anonymous":false}],"bytecode":{"object":"0x6080604052348015600f57600080fd5b50600480546001600160a01b03191633179055600160005561143b806100366000396000f3fe6080604052600436106100c25760003560e01c80638307d0831161007f578063982d3a7511610059578063982d3a7514610246578063ad3cc0ec14610286578063eb566e91146102a6578063fdc3d8d7146102c157600080fd5b80638307d083146101c55780638d977672146101f45780638da5cb5b1461022657600080fd5b80630636d04f146100c75780631d65e77e146100fd5780632db859e11461012a57806361963cbc1461014c5780637501fb72146101845780638175e3bd146101a5575b600080fd5b3480156100d357600080fd5b506100e76100e2366004610da7565b6102d7565b6040516100f49190610e06565b60405180910390f35b34801561010957600080fd5b5061011d610118366004610da7565b6104a7565b6040516100f49190610ee2565b34801561013657600080fd5b5061014a610145366004610f99565b6105fe565b005b34801561015857600080fd5b5060055461016c906001600160a01b031681565b6040516001600160a01b0390911681526020016100f4565b610197610192366004611065565b610849565b6040519081526020016100f4565b3480156101b157600080fd5b5061014a6101c03660046110b8565b610a58565b3480156101d157600080fd5b506101e56101e0366004610da7565b610ac1565b6040516100f4939291906110da565b34801561020057600080fd5b5061021461020f366004610da7565b610b6f565b6040516100f496959493929190611104565b34801561023257600080fd5b5060045461016c906001600160a01b031681565b34801561025257600080fd5b506102766102613660046110b8565b60036020526000908152604090205460ff1681565b60405190151581526020016100f4565b34801561029257600080fd5b5061014a6102a13660046110b8565b610c41565b3480156102b257600080fd5b50610197662386f26fc1000081565b3480156102cd57600080fd5b5061019760005481565b61030460405180608001604052806060815260200160608152602001600081526020016000151581525090565b6000828152600260205260409081902081516080810190925280548290829061032c90611154565b80601f016020809104026020016040519081016040528092919081815260200182805461035890611154565b80156103a55780601f1061037a576101008083540402835291602001916103a5565b820191906000526020600020905b81548152906001019060200180831161038857829003601f168201915b5050505050815260200160018201805480602002602001604051908101604052809291908181526020016000905b8282101561047f5783829060005260206000200180546103f290611154565b80601f016020809104026020016040519081016040528092919081815260200182805461041e90611154565b801561046b5780601f106104405761010080835404028352916020019161046b565b820191906000526020600020905b81548152906001019060200180831161044e57829003601f168201915b5050505050815260200190600101906103d3565b505050908252506002820154602082015260039091015460ff16151560409091015292915050565b6104e06040805160c081018252600080825260208201819052918101829052906060820190815260200160008152602001606081525090565b600082815260016020818152604092839020835160c08101855281546001600160a01b0390811682529382015490931691830191909152600281015492820192909252600380830154919291606084019160ff9091169081111561054657610546610eaa565b600381111561055757610557610eaa565b81526020016004820154815260200160058201805461057590611154565b80601f01602080910402602001604051908101604052809291908181526020018280546105a190611154565b80156105ee5780601f106105c3576101008083540402835291602001916105ee565b820191906000526020600020905b8154815290600101906020018083116105d157829003601f168201915b5050505050815250509050919050565b3360009081526003602052604090205460ff168061062657506005546001600160a01b031633145b6106665760405162461bcd60e51b815260206004820152600c60248201526b155b985d5d1a1bdc9a5e995960a21b60448201526064015b60405180910390fd5b600085815260016020526040812060039081015460ff169081111561068d5761068d610eaa565b146106d05760405162461bcd60e51b8152602060048201526013602482015272496e76616c6964207461736b2073746174757360681b604482015260640161065d565b600085815260016020908152604091829020600301805460ff19166002179055815160a0601f870183900490920281018201909252608082018581528291879087908190850183828082843760009201919091525050509082525060200161073883856111d5565b8152426020808301919091526001604092830152600088815260029091522081518190610765908261130f565b50602082810151805161077e9260018501920190610ce2565b506040828101516002838101919091556060909301516003909201805460ff19169215159290921790915560008781526001602052200154156107fa57600085815260016020526040808220600201549051339282156108fc02929190818181858888f193505050501580156107f8573d6000803e3d6000fd5b505b847fdbf512f955e2f1f802bbbeb775a6c201cd2251396edb8b61f3c0388d77509b2a858560405161082c9291906113ce565b604051908190038120815260200160405180910390a25050505050565b6000662386f26fc100003410156108995760405162461bcd60e51b8152602060048201526014602482015273125b9cdd59999a58da595b9d081c185e5b595b9d60621b604482015260640161065d565b6001600160a01b0384166108ef5760405162461bcd60e51b815260206004820152601860248201527f496e76616c696420636f6e747261637420616464726573730000000000000000604482015260640161065d565b6000805481806108fe836113de565b909155506040805160c0810182523381526001600160a01b03881660208201523491810191909152909150606081016000815260200142815260200185858080601f016020809104026020016040519081016040528093929190818152602001838380828437600092018290525093909452505083815260016020818152604092839020855181546001600160a01b03199081166001600160a01b039283161783559287015182850180549094169116179091559184015160028301556060840151600380840180549495509193919260ff19909216919084908111156109e7576109e7610eaa565b02179055506080820151600482015560a08201516005820190610a0a908261130f565b5050604080516001600160a01b03881681523460208201528392507fff64f12c10a7f138dd05ccfeb7b571f6a0f5137b0d3d24a85cc75cc352717768910160405180910390a2949350505050565b6004546001600160a01b03163314610a9f5760405162461bcd60e51b815260206004820152600a60248201526927b7363c9037bbb732b960b11b604482015260640161065d565b600580546001600160a01b0319166001600160a01b0392909216919091179055565b600260205260009081526040902080548190610adc90611154565b80601f0160208091040260200160405190810160405280929190818152602001828054610b0890611154565b8015610b555780601f10610b2a57610100808354040283529160200191610b55565b820191906000526020600020905b815481529060010190602001808311610b3857829003601f168201915b50505050600283015460039093015491929160ff16905083565b60016020819052600091825260409091208054918101546002820154600383015460048401546005850180546001600160a01b039788169790951695939460ff909316939192610bbe90611154565b80601f0160208091040260200160405190810160405280929190818152602001828054610bea90611154565b8015610c375780601f10610c0c57610100808354040283529160200191610c37565b820191906000526020600020905b815481529060010190602001808311610c1a57829003601f168201915b5050505050905086565b6004546001600160a01b03163314610c885760405162461bcd60e51b815260206004820152600a60248201526927b7363c9037bbb732b960b11b604482015260640161065d565b6001600160a01b038116600081815260036020908152604091829020805460ff1916600117905590519182527f82308c1ed3d8414941bb986aaf5d9a703bef0ff8eac6d3fe41cecb5c89869f00910160405180910390a150565b828054828255906000526020600020908101928215610d28579160200282015b82811115610d285782518290610d18908261130f565b5091602001919060010190610d02565b50610d34929150610d38565b5090565b80821115610d34576000610d4c8282610d55565b50600101610d38565b508054610d6190611154565b6000825580601f10610d71575050565b601f016020900490600052602060002090810190610d8f9190610d92565b50565b5b80821115610d345760008155600101610d93565b600060208284031215610db957600080fd5b5035919050565b6000815180845260005b81811015610de657602081850181015186830182015201610dca565b506000602082860101526020601f19601f83011685010191505092915050565b602081526000825160806020840152610e2260a0840182610dc0565b602085810151858303601f19016040870152805180845292935081019181840191600582901b85010160005b82811015610e7f57601f19868303018452610e6a828651610dc0565b60209586019594909401939150600101610e4e565b506040880151606088015260608801519450610e9f608088018615159052565b979650505050505050565b634e487b7160e01b600052602160045260246000fd5b60048110610ede57634e487b7160e01b600052602160045260246000fd5b9052565b6020815260018060a01b03825116602082015260018060a01b0360208301511660408201526040820151606082015260006060830151610f256080840182610ec0565b50608083015160a083015260a083015160c080840152610f4860e0840182610dc0565b949350505050565b60008083601f840112610f6257600080fd5b50813567ffffffffffffffff811115610f7a57600080fd5b602083019150836020828501011115610f9257600080fd5b9250929050565b600080600080600060608688031215610fb157600080fd5b85359450602086013567ffffffffffffffff811115610fcf57600080fd5b610fdb88828901610f50565b909550935050604086013567ffffffffffffffff811115610ffb57600080fd5b8601601f8101881361100c57600080fd5b803567ffffffffffffffff81111561102357600080fd5b8860208260051b840101111561103857600080fd5b959894975092955050506020019190565b80356001600160a01b038116811461106057600080fd5b919050565b60008060006040848603121561107a57600080fd5b61108384611049565b9250602084013567ffffffffffffffff81111561109f57600080fd5b6110ab86828701610f50565b9497909650939450505050565b6000602082840312156110ca57600080fd5b6110d382611049565b9392505050565b6060815260006110ed6060830186610dc0565b602083019490945250901515604090910152919050565b6001600160a01b038781168252861660208201526040810185905261112c6060820185610ec0565b82608082015260c060a0820152600061114860c0830184610dc0565b98975050505050505050565b600181811c9082168061116857607f821691505b60208210810361118857634e487b7160e01b600052602260045260246000fd5b50919050565b634e487b7160e01b600052604160045260246000fd5b604051601f8201601f1916810167ffffffffffffffff811182821017156111cd576111cd61118e565b604052919050565b600067ffffffffffffffff8311156111ef576111ef61118e565b8260051b6111ff602082016111a4565b8481529083019060208101903683111561121857600080fd5b845b838110156112b657803567ffffffffffffffff81111561123957600080fd5b860136601f82011261124a57600080fd5b803567ffffffffffffffff8111156112645761126461118e565b611277601f8201601f19166020016111a4565b81815236602083850101111561128c57600080fd5b8160208401602083013760006020838301015280865250505060208301925060208101905061121a565b5095945050505050565b601f82111561130a57806000526020600020601f840160051c810160208510156112e75750805b601f840160051c820191505b8181101561130757600081556001016112f3565b50505b505050565b815167ffffffffffffffff8111156113295761132961118e565b61133d816113378454611154565b846112c0565b6020601f82116001811461137157600083156113595750848201515b600019600385901b1c1916600184901b178455611307565b600084815260208120601f198516915b828110156113a15787850151825560209485019460019092019101611381565b50848210156113bf5786840151600019600387901b60f8161c191681555b50505050600190811b01905550565b8183823760009101908152919050565b6000600182016113fe57634e487b7160e01b600052601160045260246000fd5b506001019056fea264697066735822122090e41a68b84e683506c8580e237220323df22c8d610b0369961d9940ceb4273164736f6c634300081b0033","linkReferences":{}},"methodIdentifiers":{"MIN_PAYMENT()":"eb566e91","auditResults(uint256)":"8307d083","authorizeAggregator(address)":"ad3cc0ec","authorizedAggregators(address)":"982d3a75","getAuditResult(uint256)":"0636d04f","getTask(uint256)":"1d65e77e","nextTaskId()":"fdc3d8d7","owner()":"8da5cb5b","setTaskHook(address)":"8175e3bd","submitAuditResult(uint256,bytes,bytes[])":"2db859e1","submitAuditTask(address,bytes)":"7501fb72","taskHook()":"61963cbc","tasks(uint256)":"8d977672"},"id":0}